:020000040800F2
:1000000000900020D1010008C1220008C32200088E
:1000100000000000000000000000000000000000E0
:10002000000000000000000000000000C5220008E1
:100030000000000000000000C7220008C9220008DC
:10004000E51F0008E51F0008E51F0008E51F000880
:10005000E51F0008E51F0008E51F0008E51F000870
:10006000E51F0008E51F0008E51F0008E51F000860
:10007000E51F0008E51F0008E51F0008E51F000850
:10008000E51F0008E51F0008E51F0008E51F000840
:10009000E51F0008E51F0008E51F0008E51F000830
:1000A000E51F0008E51F0008E51F0008E51F000820
:1000B000E51F0008E51F0008E51F000830B583B004
:1000C00001F043FF304B314A1360314A1360314B2A
:1000D000314A01E002CA02C330498B42FAD32B4BAA
:1000E0001A682F4B9A4200D0FEE7294B1A682D4B15
:1000F0009A42F9D1244B2C4A13602C4A13602C4BA2
:1001000001E0002204C32B4A9342FAD3264B1B681A
:10011000002B03D1254B1B68002B00D0FEE701F01C
:1001200018FF694601A801F0BBFE234C234BE41ADB
:10013000A410002504E0AA00204BD35898470135AD
:10014000AC42F8DC1E4C1F4BE41AA410002504E05E
:10015000AA001C4BD35898470135AC42F8DC0099F3
:10016000019802F040F80500174C184BE41AA4104F
:1001700004E0013CA200154BD3589847002CF8DC52
:10018000280001F067FEC046BABADECA00000020AF
:100190007C000020000000200032000880000020C9
:1001A000785634123254769880000020B401002032
:1001B00080000020B8010020480200084802000822
:1001C00048020008480200084802000848020008E7
:1001D00010B5FFF773FF00BEFEE70420714608422A
:1001E00002D0EFF3098001E0EFF3088071460B4A7B
:1001F000104770B504000D00044801F059FE2900B5
:10020000200001F0ABFE00BEFEE7C04654310008FE
:1002100000BEFEE700BEFEE770470000F3010008E5
:10022000003200080000002080000020003200089A
:10023000000000100000001080000020B801002025
:08024000000000100000001096
:1002480010B50400114B1968002901D1012010BD17
:10025800FA20800002F038F801000D4B186802F00F
:1002680033F800F06FF800280DD1032C01D90120D4
:10027800EDE7013000222100404200F033F8054B41
:100288001C600020E3E70120E1E7C04604000020ED
:10029800140000200800002010B5084A11688023C7
:1002A8005B000B4313600020FFF7CAFF041E02D057
:1002B8000124200010BD01F0ADFFFAE70020024044
:1002C800034A1368034909685B1813607047C046FE
:1002D8001401002004000020014B18687047C04634
:1002E8001401002070B5002811DB8308134DC033BA
:1002F8009B005C5903221040C000FC321600864067
:10030800B44389010A40824022435A5170BD0F23E9
:100318000340083B9B0806339B00094A9446634404
:100328005D6803242040C000FF2214008440A543D8
:1003380089010A4082402A435A60E7E700E100E069
:1003480000ED00E0013880235B0498420FD2094A8F
:1003580050600948036A1B021B0AC02109060B43A7
:100368000362002393600733136000207047012065
:10037800FCE7C04610E000E000ED00E0F0B5D6462E
:100388004F464646C0B500233BE0032600E0002662
:10039800A64034003C435A4E1832920094518022B1
:1003A800B4584A46D24326004D46AE434D68ED0345
:1003B80002D54D462C432600514C8027E651842611
:1003C800A459260016404D68AD0302D54D462C436E
:1003D80026004B4C8427E6512468260016404D68B9
:1003E800ED0202D54D462C432600454C2660646834
:1003F80022404D68AD0201D54A462243404C626016
:1004080001330C682200DA4075D001229A40250099
:100418001540A9461442F3D04C68022C01D0122C86
:100428000ED1DC080834A400275807261E40B60061
:100438000F25B540AF430D69B5402E003E43265009
:100448000468A4465E000324A2462700B740B846C5
:10045800FF4365464446A543AC464C68554625408F
:100468002C00B44065462C4304604C68651E012D81
:1004780003D9112C01D0122C13D184683C40A44616
:10048800CC68B44065462C43846044689443220099
:100498004C682409A446012465462C409C4014431A
:1004A8004460C26817408A68B2403A43C2604A68EA
:1004B800D200A5D59A0814001834A400104EA759E4
:1004C80003241C40E4000F26A640B743A026F605E7
:1004D800B04200D15BE70B4EB04208D00A4EB042A2
:1004E80007D00A4EB04200D14FE7052650E7012653
:1004F8004EE702264CE71CBC90469946A246F0BD42
:10050800001802400004005000080050000C005081
:10051800002A01D0816170478162FCE74369194272
:1005280001D0816270478161FCE7000010B5104A74
:10053800136810490B400343136080239B009842C3
:1005480001D0002010BD0C4B1B685800C01840009B
:100558000A4901F0B9FE0130054B5B695B0503D51B
:10056800002803D00138F7E70020EBE70320E9E78C
:1005780000700040FFF9FFFF1400002040420F0008
:1005880070B582B0041E00D134E20368DB0739D5A8
:10059800C14A916838230B40D16803220A40102BC6
:1005A80026D0082B26D063688022520293427FD03F
:1005B800A022D202934200D181E0B74B1A68B74912
:1005C8000A401A601A68B6490A401A606368002B24
:1005D80000D180E0FFF780FE0500AF4B1B689B034E
:1005E80010D4FFF779FE401B6428F6D9032002E2F5
:1005F800032AD6D1A84B1B689B0303D56368002B3D
:1006080000D1FAE123689B0731D5A34A93683821C2
:100618000B40D16803220A40102B6AD0002B6BD103
:100628009D4A1268520503D5E268002A00D1E6E126
:10063800994842689B490A40616909020A43426035
:10064800002B0DD1036898490B4021690B430360C7
:100658000368DB0A07221A40944BD340944A13607C
:10066800944B1868FFF7ECFD002800D0C9E1236817
:100678001B0700D481E0884B9A6838231340182B55
:1006880073D0A369002B00D1B4E0834A136E012113
:100698000B431366FFF720FE05007F4B1B6E9B077D
:1006A8006BD4FFF719FE401B0228F6D90320A2E1FC
:1006B800794A116880235B020B43136086E7764B07
:1006C80019688022D2020A431A60196880225202ED
:1006D8000A431A607AE7FFF7FFFD05006E4B1B68B7
:1006E8009B038FD5FFF7F8FD401B6428F6D903203C
:1006F80081E1022A92D193E7E368002B22D0664A6F
:10070800136869490B4021690B4313601168802302
:100718005B000B431360FFF7DFFD05005E4B1B68B2
:100728005B0506D4FFF7D8FD401B0228F6D9032045
:1007380061E159494B685B4A1340626912021343ED
:100748004B6094E7544A13685B490B401360FFF70A
:10075800C3FD0500504B1B685B0588D5FFF7BCFD42
:10076800401B0228F6D9032045E14B4B1B6E9B0723
:1007780003D5A369002B00D145E123685B0700D4AA
:10078800A2E0454B9A6838231340202B45D0424BB2
:10079800DB6BDB004AD4404AD16B80204005014323
:1007A800D163D36B03400193019B0125434B1B6825
:1007B800DB053DD5A368012B4ED0052B52D0364B17
:1007C800DA6D01218A43DA65DA6D03318A43DA6525
:1007D800A368002B50D0FFF77FFD06002E4BDB6D82
:1007E8009B076FD4FFF778FD801B354B9842F5D9EE
:1007F800032000E1284A136E01218B431366FFF79B
:100808006BFD0500244B1B6E9B07B6D5FFF764FDF7
:10081800401B0228F6D90320EDE01F4BDB6D9B0738
:1008280052D5A368002B4FD10120E4E00025BDE795
:10083800224A116880235B000B431360FFF74CFDCD
:1008480006001E4B1B68DB05B4D4FFF745FD801B73
:100858000228F6D90320CEE00F4AD36D01210B43BD
:10086800D365B5E70C4BDA6D04210A43DA65DA6D16
:1008780003390A43DA65ABE7FFF72EFD0600064B9E
:10088800DB6D9B071ED5FFF727FD801B0C4B98429D
:10089800F5D90320AFE0C04600100240FFFFFEFF7D
:1008A800FFFFFBFFFF80FFFFFFC7FFFF0024F400EF
:1008B8001400002008000020FFFEFFFF0070004029
:1008C80088130000012D26D0E369002B00D19CE09D
:1008D800564A916838220A40102A63D0022B20D049
:1008E800524B1A6852490A401A60DA6803218A434F
:1008F800DA60DA684F490A40DA60FFF7EDFC040075
:100908004A4B1B689B014BD5FFF7E6FC001B0228EE
:10091800F6D903206FE0454AD36B47490B40D363B0
:10092800D2E7424A136842490B401360FFF7D4FCF0
:1009380005003E4B1B689B0106D5FFF7CDFC401B0D
:100948000228F6D9032056E0384AD3683B491940B3
:10095800236A606A0343A06A00020343E06A034310
:10096800206B0343606B03430B43D3601168802300
:100978005B040B431360D16880235B050B43D36092
:10098800FFF7AAFC0400294B1B689B0106D4FFF75C
:10099800A3FC001B0228F6D903202CE000202AE043
:1009A800002028E0012B32D0204BDA6803231340C3
:1009B800216A8B422DD170231340616A8B422AD160
:1009C800FE21C9011140A36A1B02994225D1F823CF
:1009D8009B031340E16A8B4221D1E0231B0513409E
:1009E800216B8B421DD1520F5207636B9A421AD169
:1009F800002000E0012002B070BD0120FBE70120CB
:100A0800F9E70120F7E70120F5E70020F3E70120E7
:100A1800F1E70120EFE70120EDE70120EBE70120F6
:100A2800E9E70120E7E70120E5E7C04600100240BA
:100A3800FFFFFFFEFFFFFEEEFFFFFFEF8C80C111FF
:100A480010B52A4B9B6838221A4207D1274B1A68DF
:100A5800D20A072313402648D84010BD234B9A6872
:100A680038231340082B3BD0204B9A683823134077
:100A7800102B0DD01D4B9A6838231340202B31D0F2
:100A88001A4B9A6838231340182B26D00020E4E725
:100A9800164AD1680D3B0B40D26812090721114054
:100AA8000131032B0FD0124801F00EFC0F4BDA680E
:100AB800120A7F23134058430C4BD968490F013160
:100AC80001F002FCC9E70B4801F0FEFB074BDA68AE
:100AD800120A7F2313405843EEE7FA20C001BCE70F
:100AE8000448BAE780200002B7E7C0460010024079
:100AF8000024F40000127A0070B504000D000028EC
:100B080000D1AAE0574B1A68072313408B4221D320
:100B180023689A070ED55B0705D5534A9168E023E9
:100B2800DB010B439360504A936850490B40A1681E
:100B38000B4393602368DB0754D56368012B20D0EF
:100B4800022B3BD0002B3FD1474A126852051CD4D8
:100B580001206AE0434A136807218B432B43136043
:100B6800FFF7BAFB06003F4B1A6807231340AB4256
:100B7800CED0FFF7B1FB801B3D4A9042F3D903204A
:100B880053E0394A1268920369D537498A680720C1
:100B9800824313438B60FFF79FFB0600324B9B6831
:100BA80038221A406368DB009A421BD0FFF794FB97
:100BB800801B2F4B9842F1D9032036E02A4A12684D
:100BC8009201E2D4012030E0032B05D0264AD26DF1
:100BD8009207DAD4012028E0234A126E9207D4D46F
:100BE800012022E01F4B1A6807231340AB421DD88F
:100BF80023685B0706D51C4A93681E490B40E168C9
:100C08000B439360FFF71CFF174B9A68120A0F23D8
:100C180013409B00184A9A581F231340D840174B7B
:100C28001860174B1868FFF70BFB70BD0D4A136867
:100C380007218B432B431360FFF74EFB0600094B3C
:100C48001A6807231340AB42D2D0FFF745FB801B3D
:100C5800074B9842F3D90320E7E70120E5E7012095
:100C6800E3E7C0460020024000100240FFF0FFFF0B
:100C780088130000FF8FFFFF643100081400002074
:100C880008000020014B18687047C0461400002077
:100C980010B5FFF7F7FF064B9A68120B07231340AE
:100CA8009B00044A9A581F231340D84010BDC046E1
:100CB80000100240A4310008F0B583B004000368B6
:100CC8009B0362D5814BDB6BDB001ED47F4AD16B63
:100CD800802040050143D163D36B03400193019BFE
:100CE80001267B4A116880235B000B431360FFF7E2
:100CF800F3FA0500764B1B68DB0508D4FFF7ECFA1E
:100D0800401B0228F6D9032502E00026E9E7002562
:100D1800002D23D16D4BD96DC02292000B001340DA
:100D2800114210D0226B9A420DD0684AD36D69499E
:100D38000B40D06D802149020143D165D16D6648D1
:100D48000140D165D365DB0710D4002D06D15F4A79
:100D5800D36D60490B40216B0B43D365012E15D130
:100D68005A4AD36B5D490B40D3630FE0FFF7B4FADF
:100D78000700564BDB6D9B07E7D4FFF7ADFAC01BA6
:100D8800574B9842F5D90325DFE700252368DB0791
:100D980006D54E4A536D03218B4361680B43536557
:100DA80023689B0706D5494A536D0C218B43A168DC
:100DB8000B43536523689B0606D5444A536D49493E
:100DC8000B40E1680B43536523689B0506D53F4AF2
:100DD800536D45490B40A1690B43536523685B0577
:100DE80006D53A4A536D41490B40E1690B435365B7
:100DF80023685B0606D5354A536D3D490B4021698A
:100E08000B43536523685B040BD5304A536D9B0035
:100E18009B08216A0B4353658023DB05226A9A42AB
:100E280039D023681B0306D5284A536D40218B43CC
:100E3800616A0B43536523689B020BD5234A536DA4
:100E48002C490B40A16A0B4353658023DB03A26A3C
:100E58009A4227D023685B020BD51C4A536D26495A
:100E68000B40E16A0B43536580235B04E26A9A42B4
:100E78001FD023681B050BD5144A536D1F490B401F
:100E880061690B43536562698023DB019A4215D07F
:100E9800280003B0F0BD0D4AD16880235B020B43E4
:100EA800D360BEE7094AD16880235B040B43D36053
:100EB800D0E7064AD1680B43D360DAE7034AD16822
:100EC80080235B020B43D360E2E7C0460010024078
:100ED80000700040FFFCFFFFFFFFFEFFFFFFFFEF7A
:100EE80088130000FFF3FFFFFFFFF3FFFFFFCFFFB3
:100EF800FFCFFFFFFFFFBFFFFFFFFFFEFF3FFFFF2B
:100F080070B504000168836802691343426913439A
:100F1800C2691343426E1A430B68A948034013433E
:100F28000B6022685368A7490B40E1680B43536084
:100F3800A1692268A44B9A4201D0236A1943936895
:100F4800A24803400B4393602268D36A0F218B4366
:100F5800616A0B43D36223689D4A93420FD09D4A2E
:100F680093426CD09C4A934200D1A1E09B4A9342A1
:100F780000D19FE0944A934272D010260EE0984A1E
:100F8800516D03220A40022A00D181E053D8002A79
:100F980000D17FE0012A00D07EE004268A4A9342ED
:100FA80000D191E080231B02E2699A4200D136E326
:100FB800042E01D100F019FD01D900F070FC002EBB
:100FC80001D100F0A9FC022E01D000F065FC636A93
:100FD800002B01D100F0E7FC012B01D100F0F1FC5E
:100FE800022B01D100F0EFFC032B01D100F0EDFC46
:100FF800042B01D100F0EBFC052B01D100F0E9FC3A
:10100800062B01D100F0E7FC072B01D100F0E5FC2D
:10101800082B01D100F0E3FC092B01D100F0E1FC21
:101028000A2B01D100F0DFFC0B2B01D100F0B8FC3A
:10103800012100F0B9FC032A30D10826AEE7684A3E
:10104800516D0C220A40082A2AD005D8002A29D036
:10105800042A29D10426A1E70C2A27D108269DE7CE
:101068005F4A526DC02109010A40802109018A4264
:1010780022D007D8002A21D08021C9008A421FD156
:1010880004268BE7C02109018A421BD1082685E77F
:10109800022683E7002681E710267FE710267DE7F2
:1010A80002267BE7002679E7102677E7102675E702
:1010B800002673E7002671E702266FE700266DE732
:1010C80010266BE7102669E7042E00D100E12CD822
:1010D800002E55D0022E26D1636A002B00D1DEE007
:1010E800012B00D1E0E0022B00D1DFE0032B00D17F
:1010F800DEE0042B00D1DDE0052B00D1DCE0062B7F
:1011080000D1DBE0072B00D1DAE0082B00D1D9E0D1
:10111800092B00D1D8E00A2B00D1D7E00B2B00D146
:10112800BAE00121BCE00126ECE3082E26D1636A6F
:10113800002B00D107E1012B00D10AE1022B00D1DD
:1011480009E1032B00D108E1042B00D107E1052BAD
:1011580000D106E1062B00D105E1072B00D104E1FF
:10116800082B00D103E1092B00D102E10A2B00D1A1
:1011780001E10B2B00D1E3E00121E5E00126C1E309
:10118800FFF786FD636A002B2CD0012B70D0022B51
:1011980070D0032B70D0042B70D0052B70D0062B89
:1011A80070D0072B70D0082B70D0092B70D00A2B69
:1011B80070D00B2B01D0012115E08021490012E0ED
:1011C800F369FFCFFFCFFFFF00800040FFF4FF115E
:1011D800003801400044004000480040004C0040F6
:1011E80000100240012101F06FF8002801D100F041
:1011F80063FC65686B005B19834201D900F05EFCF3
:101208002B03834201D200F05BFC042E00D175E170
:1012180000D9B5E0002E00D1E7E0022E00D0ACE006
:10122800636A002B00D137E1012B00D148E1022B82
:1012380000D148E1032B00D148E1042B00D148E15B
:10124800052B00D148E1062B00D148E1072B00D13E
:1012580048E1082B00D148E1092B00D148E10A2BCD
:1012680000D148E10B2B00D112E10122002315E146
:101278000221B8E70421B6E70621B4E70821B2E75E
:101288000A21B0E70C21AEE71021ACE72021AAE73C
:101298004021A8E78021A6E78021490000E001213C
:1012A800A74801F011F8A0E70221F9E70421F7E7C0
:1012B8000621F5E70821F3E70A21F1E70C21EFE71A
:1012C8001021EDE72021EBE74021E9E78021E7E75E
:1012D800FFF7B6FB636A002B1AD0012B1CD0022B38
:1012E8001CD0032B1CD0042B1CD0052B1CD0062B88
:1012F8001CD0072B1CD0082B1CD0092B1CD00A2B68
:101308001CD00B2B01D0012103E08021490000E013
:10131800012100F0D9FF68E70221FAE70421F8E784
:101328000621F6E70821F4E70A21F2E70C21F0E7A5
:101338001021EEE72021ECE74021EAE78021E8E7E9
:101348008021490000E001218020000200F0BCFF5C
:101358004BE70221F8E70421F6E70621F4E7082124
:10136800F2E70A21F0E70C21EEE71021ECE7202153
:10137800EAE74021E8E78021E6E7012600202BE0A4
:10138800082E27D1636A002B00D115E1012B00D16B
:1013980027E1022B00D127E1032B00D127E1042B01
:1013A80000D127E1052B00D127E1062B00D127E149
:1013B800072B00D127E1082B00D127E1092B00D109
:1013C80027E10A2B00D127E10B2B00D1F0E0012205
:1013D8000023F3E0012600205A4A5B4BC3189342CE
:1013E80000D96FE32368D8608CE2FFF751FC636A89
:1013F800002B1CD0012B2DD0022B2ED0032B2FD04D
:10140800042B30D0052B31D0062B32D0072B33D00C
:10141800082B34D0092B35D00A2B36D00B2B02D011
:101428000122002305E080225200002301E001226E
:101438000023002101F0BEF8050E0B022B43020227
:10144800656868080021801859412A00002301F0C6
:10145800B1F8C1E702220023EBE704220023E8E702
:1014680006220023E5E708220023E2E70A220023F8
:10147800DFE70C220023DCE710220023D9E7202233
:101488000023D6E740220023D3E780220023D0E7B9
:1014980080225200002301E0012200232848002175
:1014A80001F088F8060E0B02334302026808002197
:1014B800801859412A00002301F07CF800268BE7A8
:1014C80002220023EAE704220023E7E7062200239A
:1014D800E4E708220023E1E70A220023DEE70C22E2
:1014E8000023DBE710220023D8E720220023D5E7DA
:1014F80040220023D2E780220023CFE7FFF7A0FA9B
:10150800636A002B22D0012B34D0022B35D0032B59
:1015180036D0042B37D0052B38D0062B39D0072BE3
:101528003AD0082B3BD0092B3CD00A2B3DD00B2BB3
:1015380002D0012200230BE080225200002307E0A2
:101548000024F400FFFC0F0000FDFFFF0122002330
:10155800002101F02FF8050E0B022B4302026568EB
:1015680068080021801859412A00002301F022F858
:10157800002631E702220023EAE704220023E7E7F6
:1015880006220023E4E708220023E1E70A220023D9
:10159800DEE70C220023DBE710220023D8E7202215
:1015A8000023D5E740220023D2E780220023CFE79B
:1015B80080225200002301E0012200238020000243
:1015C800002100F0F7FF060E0B0233430202680801
:1015D8000021801859412A00002300F0EBFF002663
:1015E800FAE602220023E9E704220023E6E70622BE
:1015F8000023E3E708220023E0E70A220023DDE7CF
:101608000C220023DAE710220023D7E72022002348
:10161800D4E740220023D1E780220023CEE7042E1E
:1016280000D1D0E02DD8002E66D0022E26D1636AD4
:10163800002B00D1A4E0012B00D1B0E0022B00D197
:10164800AFE0032B00D1AEE0042B00D1ADE0052BB9
:1016580000D1ACE0062B00D1ABE0072B00D1AAE00B
:10166800082B00D1A9E0092B00D1A8E00A2B00D152
:10167800A7E00B2B00D180E0012182E001260020A9
:101688002AE0082E26D1636A002B00D1E0E0012B66
:1016980000D1EDE0022B00D1ECE0032B00D1EBE010
:1016A800042B00D1EAE0052B00D1E9E0062B00D19C
:1016B800E8E0072B00D1E7E0082B00D1E6E0092B92
:1016C80000D1E5E00A2B00D1E4E00B2B00D1BCE00F
:1016D8000121BEE001260020A84A0300103B9342E6
:1016E80000D9F1E10F2302009A434008083B184053
:1016F80010432368D86005E1FFF7CAFA636A002B34
:101708001AD0012B25D0022B25D0032B25D0042B52
:1017180025D0052B25D0062B25D0072B25D0082B27
:1017280025D0092B25D00A2B25D00B2B01D0012140
:1017380003E08021490000E0012100F0C5FD4000E0
:1017480063685B08C018616800F0BEFD0004000C07
:10175800C2E70221F1E70421EFE70621EDE70821BE
:10176800EBE70A21E9E70C21E7E71021E5E720216B
:10177800E3E74021E1E78021DFE78021490000E03D
:1017880001217F4800F0A0FD400063685B08C01895
:10179800616800F099FD0004000C00269CE7022116
:1017A800EFE70421EDE70621EBE70821E9E70A2145
:1017B800E7E70C21E5E71021E3E72021E1E74021F5
:1017C800DFE78021DDE7FFF73BF9636A002B1AD0DA
:1017D800012B26D0022B26D0032B26D0042B26D073
:1017E800052B26D0062B26D0072B26D0082B26D053
:1017F800092B26D00A2B26D00B2B01D0012103E080
:101808008021490000E0012100F05EFD400063688E
:101818005B08C018616800F057FD0004000C002642
:101828005AE70221F0E70421EEE70621ECE7082158
:10183800EAE70A21E8E70C21E6E71021E4E720219E
:10184800E2E74021E0E78021DEE78021490000E06F
:1018580001218020000200F037FD400063685B082A
:10186800C018616800F030FD0004000C002633E762
:101878000221EEE70421ECE70621EAE70821E8E780
:101888000A21E6E70C21E4E71021E2E72021E0E75E
:101898004021DEE78021DCE7012600202AE0082E2F
:1018A80026D1636A002B00D1E3E0012B00D1EFE0E1
:1018B800022B00D1EEE0032B00D1EDE0042B00D188
:1018C800ECE0052B00D1EBE0062B00D1EAE0072B7A
:1018D80000D1E9E0082B00D1E8E0092B00D1E7E0CE
:1018E8000A2B00D1E6E00B2B00D1BFE00121C1E0BB
:1018F80001260020214A0300103B934200D9E5E06D
:101908002368D86001236A22A352023AA352002313
:10191800E3662367300070BDFFF7BAF9636A002BEE
:101928001AD0012B24D0022B24D0032B24D0042B33
:1019380028D0052B28D0062B28D0072B28D0082BF9
:1019480028D0092B28D00A2B28D00B2B01D0012115
:1019580003E08021490000E0012100F0B5FC636844
:101968005B08C018616800F0AFFC0004000CC1E718
:101978000221F2E70421F0E70621EEE7EFFF00007D
:101988000024F4000821E8E70A21E6E70C21E4E74F
:101998001021E2E72021E0E74021DEE78021DCE7B3
:1019A8008021490000E00121494800F08DFC63686E
:1019B8005B08C018616800F087FC0004000C002672
:1019C80098E70221F0E70421EEE70621ECE7082179
:1019D800EAE70A21E8E70C21E6E71021E4E72021FD
:1019E800E2E74021E0E78021DEE7FFF729F8636AB4
:1019F800002B1AD0012B25D0022B25D0032B25D064
:101A0800042B25D0052B25D0062B25D0072B25D038
:101A1800082B25D0092B25D00A2B25D00B2B01D03C
:101A2800012103E08021490000E0012100F04CFC85
:101A380063685B08C018616800F046FC0004000C8D
:101A4800002657E70221F1E70421EFE70621EDE739
:101A58000821EBE70A21E9E70C21E7E71021E5E790
:101A68002021E3E74021E1E78021DFE780214900E9
:101A780000E001218020000200F026FC63685B087A
:101A8800C018616800F020FC0004000C002631E753
:101A98000221EFE70421EDE70621EBE70821E9E75A
:101AA8000A21E7E70C21E5E71021E3E72021E1E738
:101AB8004021DFE78021DDE7002623E7012621E733
:101AC80001261FE701261DE701261BE7012619E766
:101AD8000024F400836ADB0706D5026853682C49A2
:101AE8000B40C16A0B435360836A9B0706D50268A3
:101AF800536828490B40016B0B435360836A5B07AB
:101B080006D50268536824490B40416B0B43536068
:101B1800836A1B0706D50268536820490B40816B0E
:101B28000B435360836ADB0606D5026893681C4939
:101B38000B40C16B0B439360836A9B0606D5026812
:101B4800936818490B40016C0B439360836A5B06EA
:101B58000BD50268536814490B40416C0B43536022
:101B680080235B03426C9A420AD0836A1B0606D51F
:101B7800026853680D490B40C16C0B4353607047B2
:101B8800026853680A490B40816C0B435360ECE7C9
:101B9800FFFFFDFFFFFFFEFFFFFFFBFFFF7FFFFFD4
:101BA800FFEFFFFFFFDFFFFFFFFFEFFFFFFFF7FF85
:101BB800FFFF9FFFF8B5CE46474680B506000D00EB
:101BC80017009946089B98463368DC692C40641BCB
:101BD80063425C41BC4220D143460133F4D0FEF756
:101BE8007BFB4B46C01A404502D84346002BEBD13D
:101BF800326813680B490B40136032689368A3314D
:101C0800FF318B43936020238022B3500432B350BA
:101C18005C330022F254032000E000200CBC904604
:101C28009946F8BD5FFEFFFF30B583B004008823F6
:101C38000022C250FEF750FB050023681B681B07F3
:101C48000ED423681B685B0717D420238022A35077
:101C58000432A3505C330022E254002003B030BDAC
:101C680080210C4B00930300002289032000FFF71A
:101C7800A1FF0028E5D00320F0E78021054B009361
:101C88002B000022C9032000FFF794FF0028DCD0B6
:101C98000320E3E7FFFFFF0110B5041E30D08023C7
:101CA800C358002B22D080232422E25022681368D4
:101CB80001218B4313602000FFF722F9012814D07B
:101CC800A36A002B18D1226853680E490B40536051
:101CD800226893682A218B43936022681368293904
:101CE8000B4313602000FFF79FFF10BD7C330022D9
:101CF800C25400F0AFFAD6E72000FFF7EBFEE2E7A8
:101D08000120F2E7FFB7FFFF70B584B0040002AA14
:101D1800154B03CB03C26A46144B03CB03C2636E55
:101D2800002B06D101336A22A352023AA35204B00F
:101D380070BD226895686D0E07231D409268520F8A
:101D4800134002AEF05CC0006A46D15C00F046FB6E
:101D58006A23E052705DC0006B46595D00F03EFB9F
:101D68006823E052E3E7C0469C3000089030000842
:101D780070B57C23C35C012B15D07C240126065545
:101D8800802524234351026813681168B143116008
:101D9800064A13400022426601680B602023435123
:101DA8000255002070BD0220FCE7C046FFFFFFDFA0
:101DB800F8B504000B007C22825C012A1BD07C252C
:101DC8000120605580262422A251226817681168D4
:101DD8008143116022689168C900C908194391605C
:101DE8002000FFF791FF23681F602023A3510023E1
:101DF80063550020F8BD0220FCE70000F8B5040098
:101E08000B007C22825C012A1BD07C2501206055B6
:101E180080262422A2512268176811688143116024
:101E28002268916808480140194391602000FFF733
:101E38006BFF23681F602023A351002363550020F4
:101E4800F8BD0220FCE7C046FFFFFFF1FEE70000F7
:101E580010B503000D4A1268002A0BD00B4A10680F
:101E6800033303229343C318094A934206D8074A07
:101E7800136010BD054A07491160EFE700F0B0FC98
:101E88000C23036001204042F3E7C0468400002091
:101E9800008C0020B801002001230360014B0B6077
:101EA8007047C0460C0000200FB400B583B004ABE7
:101EB80004CB01938021074800F0D4FC002803DC00
:101EC80003B008BC04B018470100024800F035F818
:101ED800F6E7C0468C000020F0B5CE46474680B5F0
:101EE80085B0040088464356002B24D10425281CBD
:101EF800211CABBE041C404605B00CBC904699465C
:101F0800F0BD0022A2566946CA5401330134AB42DF
:101F1800F7D3E94600224946CA540427381C4946E3
:101F2800ABBE071C761B002EE5D03500102E00D95D
:101F380010250023EBE70E00F5E710B5FFF7CCFFFF
:101F480010BD10B500F04CF810BD10B500F050F8F9
:101F580010BD000070B504000D001548FFF7A4FF80
:101F680021681448FFF7A0FF61681348FFF79CFF3A
:101F7800A1681248FFF798FFE1681148FFF794FF3E
:101F880021691048FFF790FF61690F48FFF78CFF40
:101F9800A1690E48FFF788FFE1690D48FFF784FF44
:101FA8000C48FFF781FF29000B48FFF77DFF70BD44
:101FB800A4300008B4300008C4300008D430000849
:101FC800E4300008F4300008043100081431000837
:101FD80024310008343100083C310008FEE70000D5
:101FE800024B802212059A607047C04600ED00E05F
:101FF80010B5284B9A6838231340182B37D01FD8B0
:10200800082B24D0102B3BD1224AD16803230B4044
:10201800D2681209072111400131032B2CD01E4828
:1020280000F052F91B49CA68120A7F23134058432B
:10203800C968490F013100F047F9184B186009E0E9
:10204800202B1DD1154B802212021A6002E0134B7F
:10205800134A1A600F4B9A68120A0F2313409B0009
:10206800104A9B580D4A1168D940116010BD0B4B9E
:10207800FA22D2011A60EDE7094800F025F9D1E704
:10208800044B1B68DB0A07221A40034BD340034A60
:102098001360DFE7001002400024F4001400002061
:1020A80000127A006431000870B588B0142200214B
:1020B80003A800F0A4FB164B596B04221143596383
:1020C800596B0A400092009A5A6B20252A435A639A
:1020D8005A6B2A400192019A5A6B012422435A638F
:1020E8005B6B23400293029BA026F6050022202169
:1020F8003000FEF70DFA039504940023059302338C
:10210800069303A93000FEF739F908B070BDC04640
:102118000010024010B5104C104B2360E1235B0205
:1021280063600023A360E36023610C226261A36102
:10213800E36123626362A3622000FFF7ADFD002123
:102148002000FFF735FE00212000FFF757FE200092
:10215800FFF70EFE10BDC0461C01002000440040E1
:1021680030B5A1B03822002112A800F048FB102297
:1021780000210EA800F043FB3422002101A800F042
:102188003EFB80208000FEF7D1F9022512958023BE
:102198005B00159300241694C03B179319951A9564
:1021A8001B94383B1C9380239B021D9380239B0424
:1021B8001E9380239B051F9312A8FEF7E1F90723BE
:1021C8000E930F951094119402210EA8FEF794FC1B
:1021D8000195039401A8FEF76FFD21B030BD10B53D
:1021E800FEF75AF8FFF7BCFFFFF75EFFFFF792FF15
:1021F800A0202021C005FEF791F9FEF76DF8040034
:102208000020FA2252009042F2DAFEF765F8001B2D
:10221800F7E7000082B00D4B196C012211431964D5
:10222800196C0A400092009ADA6B802149050A432A
:10223800DA63DB6B0B400193019B054A1168C023ED
:10224800DB000B43136002B07047C0460010024029
:102258000000014010B588B004001422002103A832
:1022680000F0CDFA2268124B9A4201D008B010BD96
:10227800104BD96B802080020143D963DA6B02408E
:102288000192019A596B0122114359635B6B134008
:102298000293029B0C2303930A3B049305920023A9
:1022A80006930792A02003A9C005FEF767F8DDE7AB
:1022B80000440040001002407047FEE77047704736
:1022C80010B5FDF7FDFF10BD002243088B4274D303
:1022D80003098B425FD3030A8B4244D3030B8B421F
:1022E80028D3030C8B420DD3FF22090212BA030C28
:1022F8008B4202D31212090265D0030B8B4219D309
:1023080000E0090AC30B8B4201D3CB03C01A524128
:10231800830B8B4201D38B03C01A5241430B8B4270
:1023280001D34B03C01A5241030B8B4201D30B0359
:10233800C01A5241C30A8B4201D3CB02C01A524180
:10234800830A8B4201D38B02C01A5241430A8B4243
:1023580001D34B02C01A5241030A8B4201D30B022C
:10236800C01A5241CDD2C3098B4201D3CB01C01A46
:10237800524183098B4201D38B01C01A5241430950
:102388008B4201D34B01C01A524103098B4201D33E
:102398000B01C01A5241C3088B4201D3CB00C01AAB
:1023A800524183088B4201D38B00C01A5241430823
:1023B8008B4201D34B00C01A5241411A00D2014648
:1023C800524110467047FFE701B5002000F0F0F8D1
:1023D80002BDC0460029F7D076E7704703460B4395
:1023E8007FD4002243088B4274D303098B425FD306
:1023F800030A8B4244D3030B8B4228D3030C8B4232
:102408000DD3FF22090212BA030C8B4202D3121217
:10241800090265D0030B8B4219D300E0090AC30BEC
:102428008B4201D3CB03C01A5241830B8B4201D399
:102438008B03C01A5241430B8B4201D34B03C01A82
:102448005241030B8B4201D30B03C01A5241C30AFA
:102458008B4201D3CB02C01A5241830A8B4201D36B
:102468008B02C01A5241430A8B4201D34B02C01A55
:102478005241030A8B4201D30B02C01A5241CDD2FA
:10248800C3098B4201D3CB01C01A524183098B4245
:1024980001D38B01C01A524143098B4201D34B012E
:1024A800C01A524103098B4201D30B01C01A524191
:1024B800C3088B4201D3CB00C01A524183088B4218
:1024C80001D38B00C01A524143088B4201D34B0001
:1024D800C01A5241411A00D2014652411046704773
:1024E8005DE0CA0F00D04942031000D34042534078
:1024F80000229C4603098B422DD3030A8B4212D338
:10250800FC22890112BA030A8B420CD38901921169
:102518008B4208D3890192118B4204D389013AD0A6
:10252800921100E08909C3098B4201D3CB01C01A7B
:10253800524183098B4201D38B01C01A524143098E
:102548008B4201D34B01C01A524103098B4201D37C
:102558000B01C01A5241C3088B4201D3CB00C01AE9
:10256800524183088B4201D38B00C01A5241D9D201
:1025780043088B4201D34B00C01A5241411A00D282
:102588000146634652415B10104601D34042002B7E
:1025980000D54942704763465B1000D3404201B5FD
:1025A800002000F005F802BD0029F8D016E77047B2
:1025B8007047C046002B11D1002A0FD1002900D145
:1025C800002802D00021C943081C07B4024802A110
:1025D8004018029003BDC046D9FFFFFF03B4684608
:1025E80001B5029800F006F8019B9E4602B00CBCAB
:1025F8007047C046F0B557464E464546DE46E0B5FC
:1026080004000D009246994683B08B4230D82DD0F5
:102618004946504600F0BAF829000600200000F0AC
:10262800B5F8331A9846203B9B4633D45A4653464E
:10263800934042461F00534693401E00AF423AD88B
:10264800AF4200D178E05B46A41BBD41002B00DA05
:1026580075E0002200230092019301235A4693401B
:102668000193012342469340009328E08242CFD948
:1026780000220023009201930C9B002B01D01C60C8
:102688005D600098019903B03CBC90469946A2460B
:10269800AB46F0BD424620239B1A5246DA404146DB
:1026A80013004A468A40170042461F435346934048
:1026B8001E00AF42C4D90022002300920193434672
:1026C800002BD9D0FB0772081A4346467B080EE058
:1026D800AB4201D1A2420CD8A41A9D410120241971
:1026E8006D410021013E24184D41002E06D0AB4219
:1026F800EED9013E24196D41002EF8D100980199B8
:102708005B4600196941002B24DB2B005A464446DE
:10271800D3402A00E2401C005B461500002B2ADB50
:1027280026009E40330026004746BE403200801AED
:102738009941009001919FE7A342BCD883E74246A4
:10274800202300219B1A0022009101920122DA40E5
:10275800019286E7424620239B1A2A0046469A4061
:102768002300F340444613432A00E2401C005B4622
:102778001500002BD4DA42462F002023260097406C
:102788009B1ADE403B003343CDE7C04610B5002915
:1027980003D100F007F8203002E0081C00F002F82E
:1027A80010BDC0461C2101231B04984201D3000C14
:1027B80010391B0A984201D3000A08391B099842AC
:1027C80001D30009043902A2105C40187047C046C2
:1027D80004030202010101010000000000000000E2
:1027E800014B18687047C04618000020002310B538
:1027F8009A4200D110BDCC5CC4540133F8E7030001
:102808008218934200D1704719700133F9E730B547
:10281800140005001A009BB0002C05DA8B23036016
:10282800012040421BB030BD822368469B00838153
:102838000023009104919C4200D0631E02930593EB
:10284800012369465B42CB8128001E9B00F078F883
:10285800431C01DA8B232B60002CE3D00023009A61
:102868001370DFE707B5009313000A000100024860
:102878000068FFF7CCFF0EBD18000020F0B58E6889
:1028880085B007000C00039201939E423CD8902328
:102898008A89DB001A4234D00325096923685B1A48
:1028A8000293636902985D43EB0F5D19019B6D10FC
:1028B80001331B18AB4200D91D00530532D529003E
:1028C800380000F027FB061E09D10C233B6040238B
:1028D8000120A28940421343A38105B0F0BD029AAA
:1028E8002169FFF783FFA389144A1A408023134301
:1028F800A381029B2661F61826606561019EED1A88
:10290800A560019B9E4200D9019E32000399206870
:1029180000F0A3FAA36800209B1BA36023689E19FC
:102928002660DAE72A00380000F052FB061EE0D1E4
:102938003800216900F0A4FAC7E7C0467FFBFFFF13
:10294800F0B5A1B003901D008B890F0016001B067F
:1029580011D50B69002B0ED1402100F0DBFA38604D
:102968003861002805D10C23039A0138136021B07F
:10297800F0BD40237B61002308AC6361203363769C
:102988001033A376079535002B78002B01D0252B23
:1029980047D1AB1B0593B5420CD0320039000398E0
:1029A800FFF76CFF431C00D1AEE06269059B9446BB
:1029B800634463612B78002B00D1A5E0012200233A
:1029C8005242626004A9543252186E1C2360E360BC
:1029D800A3601370A36505223178544800F032FAD9
:1029E800751C00281FD12268D30604D5532304A9D7
:1029F8005B1820211970130704D5532304A95B1809
:102A08002B21197033782A2B16D0350000210A2083
:102A1800E3682A786E1C303A092A4ED9002911D168
:102A280017E00135B0E7414B2268C01A0123834003
:102A380013432E002360CEE7079B191D1B680791DF
:102A4800002B01DB0B9304E05B42E360022313439A
:102A580023602B782E2B0AD16B782A2B35D1079B34
:102A680002351A1D1B680792002B2BDB0993304E89
:102A780003223000297800F0E5F9002806D0402329
:102A8800801B83402268013513432360297806227E
:102A980028486E1C217600F0D5F900283CD0264B3A
:102AA800002B25D10722079B07339343083307934D
:102AB8006369049A9B18636165E743433500012104
:102AC8009B18A6E701235B42D0E700230A201A00DF
:102AD8000135636029786E1C3039092903D9002B28
:102AE800C5D00992C3E74243350001235218F1E7E4
:102AF80007AB00933A002100104B039800E000BF99
:102B08000490049B0133D3D1BB890D985B0600D494
:102B18002DE7012040422AE707AB00933A00210045
:102B2800064B039800F07CF8EAE7C046C431000879
:102B3800CA310008CE3100080000000085280008CE
:102B4800F7B5150001938A680B690C000090934251
:102B580000DA130022002B6043321278002A01D0D9
:102B680001332B6023689B0602D52B6802332B6048
:102B78002268062317001F401A4227D02300433338
:102B88001B785A1E93412268920630D4220001997C
:102B98000098089E4332B047431C25D0062320687E
:102BA8002A68E16800250340042B03D18D1AEB4302
:102BB800DB171D40A3682269934201DD9B1AED18BB
:102BC8000027BD4220D1002010E00137E3682A68C1
:102BD8009B1ABB42D2DD2200012301990098089E6E
:102BE8001932B047431CF0D101204042FEBD3020CD
:102BF800E1184331087021005A1C45310978A218A0
:102C0800433202331170C1E7220001230199009871
:102C1800089E1A32B047431CE6D00137D1E70000BE
:102C2800F0B58BB006920A004332079305900492E0
:102C38000A7E0C00109B782A06D8622A08D8002A37
:102C480000D1C0E0582A52D026004236327022E025
:102C5800100063381528F7D800F00CFA16001F008A
:102C6800F6FFF6FFF6FFF6FF1F00F6FFF6FFF6FF8A
:102C7800F6FFA80036009A00F6FFF6FFB900F6FF47
:102C88003600F6FFF6FF9E0026001A684236111D30
:102C98001960136833700123A7E0086819680A1DD2
:102CA80005060BD50D681A60002D03DA2D23049A4A
:102CB8006D421370614B0A27039332E00D681A6066
:102CC8004106F1D52DB2EFE70D681968081D1860A7
:102CD8002E0601D50D6803E06D06FBD50D68ADB273
:102CE800564B0A2703936F2A17D1082715E0453159
:102CF8000A70524A03921A68216820CA1A600806A4
:102D080050D5CB0702D52023194321601027002D69
:102D180003D1202322689A432260230000224333F0
:102D28001A706368A360002B03DB042221689143B7
:102D38002160002D02D1049E002B0CD0049E280097
:102D48003900FFF747FB039B013E5B5C33702B00A8
:102D580005009F42F3D9082F09D12368DB0706D560
:102D680063682269934202DC3023013E3370049B7E
:102D78009B1B2361079B210000930598069B09AACA
:102D8800FFF7DEFE431C35D1012040420BB0F0BDF9
:102D9800202209680A4322602200782145321170F6
:102DA800274AA7E74806ACD5ADB2AAE71A680D6866
:102DB800101D4969186013682E0601D5196002E0D4
:102DC8006D06FBD519800023049E2361D2E71A689B
:102DD800111D1960166800213000626800F032F891
:102DE800002801D0801B6060636823610023049A77
:102DF8001370BFE72369320006990598079DA84715
:102E0800431CC1D023689B0715D4099BE0689842EE
:102E1800BCDA1800BAE72200012306990598079E34
:102E28001932B047431CAFD00135E368099A9B1AA1
:102E3800AB42F0DCE9E70025F7E7C046D5310008EA
:102E4800E6310008C9B28218904201D100207047CB
:102E580003788B42FBD00130F6E710B5884202D9DF
:102E68008B18984203D3002307E08B5C8354013A04
:102E7800FBD210BDCC5CC45401339A42FAD1F8E7B6
:102E880070B50500002910D00C1F2368002B00DA4C
:102E9800E418280000F0D4F81D4A1368002B05D167
:102EA80063601460280000F0D3F870BDA34208D90D
:102EB800216860188342F3D118685B684118216063
:102EC800EEE71A005B68002B01D0A342F9D911681C
:102ED8005018A0420BD1206809185018116083427D
:102EE800E0D118685B68411811605360DAE7A042C6
:102EF80002D90C232B60D5E721686018834203D1DF
:102F080018685B684118216063605460CAE7C0466E
:102F18000C010020F8B50323CD1C9D43083506009D
:102F28000C2D1FD20C25A9421ED8300000F088F8BD
:102F380025490A681400002C1AD1244F3B68002B3D
:102F480004D12100300000F069F838602900300011
:102F580000F064F8431C2BD10C233000336000F0E0
:102F680077F803E0002DDEDA0C2333600020F8BD8B
:102F780023685B1B19D40B2B03D92360E418256045
:102F880003E06368A2420ED10B60300000F060F8E5
:102F9800200007220B30231D9043C21A9842E6D026
:102FA8001B1AA350E3E75360EFE722006468C2E707
:102FB8000323C41C9C43A042E1D0211A300000F036
:102FC8002DF8431CDBD1C7E70C01002010010020BD
:102FD800F8B507000D001600002905D11100FFF70C
:102FE80099FF04002000F8BD002A03D1FFF748FF2D
:102FF8003400F7E700F034F82C00B042F2D2310088
:103008003800FFF787FF041EECD029003200FFF7D5
:10301800EDFB29003800FFF733FFE3E7002370B525
:10302800064D040008002B60FEF712FF431C03D175
:103038002B68002B00D0236070BDC046180100200B
:1030480010B5024800F014F810BDC046AC010020CD
:1030580010B5024800F00DF810BDC046AC010020C4
:103068000B1F1B68181F002B01DA0B58C01870477C
:103078007047704703B47146490840004900095E2B
:1030880049008E4403BC704708040204080101018A
:10309800000000000101010307010000537461638F
:1030A8006B206672616D653A0A000000205230207C
:1030B8003D2020253038580A0000000020523120D9
:1030C8003D2020253038580A0000000020523220C8
:1030D8003D2020253038580A0000000020523320B7
:1030E8003D2020253038580A000000002052313297
:1030F800203D20253038580A00000000204C52207E
:103108003D2020253038580A000000002050432078
:103118003D2020253038580A000000002050535226
:10312800203D20253038580A000000004D6973639F
:103138000A000000204C522F4558435F5245545511
:10314800524E3D20253038580A0000005B48617215
:10315800644661756C745D0A0000000000000000A0
:103168000000000000000000000000000000000057
:103178000000000000000000000000000100000046
:103188000200000003000000040000000600000028
:10319800070000000800000009000000000000000F
:1031A8000000000000000000000000000100000016
:1031B800020000000300000004000000232D302B53
:1031C8002000686C4C006566674546470030313220
:1031D8003334353637383941424344454600303177
:0F31E800323334353637383961626364656600D7
:0831F80004F4FF7F0100000058
:1032000078563412010000000400000088000020FD
:10321000000000000024F4001C000020000000005A
:10322000000000000000000000000000000000009E
:10323000000000000000000000000000000000008E
:10324000000000000000000000000000000000007E
:10325000000000000000000000000000000000006E
:10326000000000000000000000000000000000005E
:1032700000000000000000000000000032547698BA
:04000005080000BD32
:00000001FF
